S00A000053492E737265637E
S11300000C94B4000C94D1000C94D1000C94D10045
S11300100C94D1000C94D1000C94D1000C94D10018
S11300200C94D1000C94D1000C94D1000C94D10008
S11300300C94D1000C94D1000C94D1000C94D100F8
S11300400C94D1000C94D1000C9420040C94D10095
S11300500C94D1000C94D1000C94D1000C94D100D8
S11300600C94D1000C94D100637C777BF26B6FC548
S11300703001672BFED7AB76CA82C97DFA5947F0A7
S1130080ADD4A2AF9CA472C0B7FD9326363FF7CC83
S113009034A5E5F171D8311504C723C31896059A20
S11300A0071280E2EB27B27509832C1A1B6E5AA043
S11300B0523BD6B329E32F8453D100ED20FCB15B2E
S11300C06ACBBE394A4C58CFD0EFAAFB434D338597
S11300D045F9027F503C9FA851A3408F929D38F56B
S11300E0BCB6DA2110FFF3D2CD0C13EC5F974417A2
S11300F0C4A77E3D645D197360814FDC222A908819
S113010046EEB814DE5E0BDBE0323A0A4906245CA4
S1130110C2D3AC629195E479E7C8376D8DD54EA909
S11301206C56F4EA657AAE08BA78252E1CA6B4C6D5
S1130130E8DD741F4BBD8B8A703EB5664803F60E2E
S1130140613557B986C11D9EE1F8981169D98E941D
S11301509B1E87E9CE5528DF8CA1890DBFE6426836
S113016041992D0FB054BB1611241FBECFEFD8E018
S1130170DEBFCDBF11E0A0E0B1E0E0EFFFE002C0E0
S113018005900D92A233B107D9F721E0A2E3B1E0C3
S113019001C01D92A334B207E1F70E9417040C9426
S11301A0F6070C940000FC012FEF240F442341F0C8
S11301B0A62FB72F9D918081982791932150D0F736
S11301C00895CF93DF93EC01413108F5442399F06E
S11301D0A62FB72FFC01E05AFF4F2FEF240F30E07A
S11301E02F593F4F280F391F9D919193E217F30721
S11301F0D9F7403148F4FE01E40FF11DE05AFF4FF6
S113020010824F5F4031B8F3C058DF4F1882DF913E
S1130210CF910895EF92FF920F931F93CF932131C3
S113022050F4C22F7A018C010E9484034C2FB70131
S1130230C8010E94E100CF911F910F91FF90EF90B0
S11302400895AC016623C9F06150FC01E60FF11D6D
S1130250808191E0980F90838F3F79F4611103C0FE
S11302600895662351F06150FA01E60FF11D908163
S113027021E0290F20839F3FA1F308952F923F92FD
S11302804F925F926F927F928F929F92AF92BF92A2
S1130290CF92DF92EF92FF920F931F93CF93DF934E
S11302A04115510509F448C07A013B016C01812CC8
S11302B0912CEC01C058DF4F1C0180E6280E311C44
S11302C0260180E7480E511C6894AA24A4F8B12C96
S11302D0888181110DC0D101F2018D918193EC17B8
S11302E0FD07D9F7B201C6010E94B90380E18883F2
S11302F0888190E08701081919098017910708F48B
S11303008C01B501681B790B60597F4F6C0D7D1D05
S1130310402FC301880D991D0E94D300800E911EA9
S11303208881801B8883811104C060E1C1010E941F
S113033021018E149F0460F2DF91CF911F910F91E0
S1130340FF90EF90DF90CF90BF90AF909F908F90F1
S11303507F906F905F904F903F902F9008958823E7
S113036024F4880F9BE189270895880F08959C0140
S11303709FE0D901A90FB11DEC91F0E0E859FF4FBE
S1130380E491EC939150A8F70895CF93DF93DC01A7
S11303909FE0292F30E0FD01E20FF31FEB01C20FB4
S11303A0D31F4081288124272083915090F7DF9127
S11303B0CF910895CF93DF93EC01DA015FE0252F0D
S11303C030E0FB01E20FF31F9081FD01E20FF31F08
S11303D09083FE01E20FF31F808198279083205FB2
S11303E03F4FFB01E20FF31F8081FD01E20FF31F7A
S11303F08083515020F7DF91CF910895FC018181D2
S1130400958191839185958395859187858782854B
S1130410928192878283838197859383938597873B
S113042097819387878386859681968786830895A7
S11304304F925F926F927F928F929F92AF92BF92F0
S1130440CF92DF92EF92FF920F931F93CF93DF939C
S11304508C016C018FEFC81AD80A7801E2E0EE0E25
S1130460F11C4801F3E08F0E911C580180E1A80EA5
S1130470B11CF801D081F6015080F7014080F401ED
S11304807080852D8D27672C6424C62DC8270E9473
S1130490AF018C27982F9D27F8019083842D852503
S11304A00E94AF019C2F9827F601808198279083A2
S11304B0862D0E94AF019C2F9827F70180819827F1
S11304C09083872D8D270E94AF018C27F401C08172
S11304D0C827C0830C5F1F4FF4E0CF0ED11C84E00B
S11304E0E80EF11CE4E08E0E911C0A151B0509F6BA
S11304F0DF91CF911F910F91FF90EF90DF90CF90FC
S1130500BF90AF909F908F907F906F905F904F902F
S11305100895EF92FF920F931F93CF93DF93DC0123
S1130520EB015D96EC915D97F0E0E859FF4FE491A3
S11305308881E8278C91E827EC935E96EC915E978E
S1130540F0E0E859FF4FE49111968C911197E82758
S11305501196EC9311975F96EC915F97F0E0E85950
S1130560FF4FE49112968C911297E8271296EC9320
S113057012975C96EC915C97F0E0E859FF4FE49198
S113058013968C911397E8271396EC93139788810D
S1130590982F991F9927991F2BE1929F902D112431
S11305A0880F892788839D012C5F3F4FCD010596D5
S11305B07D0146E0E40EF11CFD013796BD016D5E40
S11305C07F4F8F0107501109E9015881E8014881E3
S11305D04527E90148830F5F1F4FEC015881E8016B
S11305E048814527EC0148830F5F1F4FE70158817D
S11305F0E80148814527E70148830F5F1F4F508179
S1130600E8014881452740832C5F3F4F0496D4E09E
S1130610ED0EF11C3496E617F70799F61C96EC914B
S11306201C97F0E0E859FF4FE49150968C91509755
S1130630E8275096EC9350971D96EC911D97F0E0A7
S1130640E859FF4FE49151968C915197E8275196C0
S1130650EC9351971E96EC911E97F0E0E859FF4FEA
S1130660E49152968C915297E8275296EC935297C4
S11306701F96EC911F97F0E0E859FF4FE4915396D1
S11306808C915397E8275396EC935397AD014C5EA6
S11306905F4F9D012B5E3F4FED016696FD017796FE
S11306A08D010D5D1F4FBF0167507109DA018C91F7
S11306B0DB019C919827DA019C936F5F7F4FD901EE
S11306C08C91DB019C919827D9019C936F5F7F4F9C
S11306D08881DB019C91982798836F5F7F4F80818D
S11306E0DB019C91982790834C5F5F4F2C5F3F4FB9
S11306F024963496E017F107B1F6DF91CF911F915C
S11307000F91FF90EF900895EF92FF920F931F9334
S1130710CF93DF931F92CDB7DEB77C0181E089834D
S1130720062F172FF701E05CFF4F9701205E3F4F24
S1130730A701405A5F4FD8019D918D019193D90132
S11307409D939D01E417F507B1F717E0B0E4EB0EB4
S1130750F11CBE016F5F7F4FC7010E9489021150D7
S1130760C1F70F90DF91CF911F910F91FF90EF9000
S113077008958F929F92AF92BF92DF92EF92FF9271
S11307800F931F93CF93DF931F92CDB7DEB75C0116
S11307908B01D82EEB2CBC01605E7F4FAC01C801ED
S11307A00E94DA0181E08983FF24F394450180E10A
S11307B0880E911CC8010E94B701C8010E94FE0165
S11307C0C8010E941802F0FE05C0B401C8010E94CD
S11307D0C5010CC0BE016F5F7F4F8D2D9E2D0E9401
S11307E089026D2D7E2DC8010E94C501F3948EE00F
S11307F0F812E0CFC8010E94B701C8010E94FE01AF
S1130800BE016F5F7F4FC5010E948902B501C80117
S11308100E94C5010F90DF91CF911F910F91FF901E
S1130820EF90DF90BF90AF909F908F9008950E94BB
S1130830300487E690E00E94E1040E948204FDCF28
S11308401F920F920FB60F9211248F938091C600BE
S1130850809342018F910F900FBE0F901F901895B7
S113086080E480937C0087E880937A000895ECE725
S1130870F0E090818770982B9083EAE7F0E0808124
S113088080648083808184FDFDCFEAE7F0E080818D
S113089080618083E8E7F0E08081918110927900A3
S11308A0108208958F708A3010F4805D0895895CF9
S11308B00895EF92FF920F931F93CF93DF936623D4
S11308C0D1F0EC016150062F10E00F5F1F4F080FAD
S11308D0191F7E01899182958F700E9452040E9493
S11308E0F304F70180818F700E9452040E94F30484
S11308F0C017D10771F7DF91CF911F910F91FF902E
S1130900EF9008950F931F93CF93DF93CDB7DEB786
S1130910C358D1090FB6F894DEBF0FBECDBF80E037
S11309200E9437041A82198222E3AC01249FC00179
S1130930259F900D11246FEF73E00E940A0577271D
S11309407F936F9380E291E09F938F938E010F5F6B
S11309501F4F1F930F930E941E0520E142E351E0B5
S113096060E071E0CE0103960E940A0142E050E08B
S1130970B801CE0103960E943E0162E070E0C80116
S11309800E94590483E291E00E94FB0420E142E3C7
S113099051E060E071E0CE0103960E940A010F90DD
S11309A00F900F900F900F900F90CD57DF4F0FB611
S11309B0F894DEBF0FBECDBFDF91CF911F910F9191
S11309C008959093C5008093C400E1ECF0E0808129
S11309D088618083808180688083E2ECF0E080819C
S11309E08E6080830895E0ECF0E0908195FFFDCF68
S11309F08093C6000895CF93DF93EC018881882308
S1130A0031F021960E94F30489918111FBCFDF918B
S1130A10CF910895AA1BBB1B51E107C0AA1FBB1F9E
S1130A20A617B70710F0A61BB70B881F991F5A9576
S1130A30A9F780959095BC01CD010895AEE0B0E092
S1130A40E4E2F5E00C94CD070D891E8986E08C83E1
S1130A501A8309838FEF9FE79E838D83AE01475EE0
S1130A605F4F6F89788DCE0101960E9441052F81D9
S1130A703885F801E20FF31F10822E96E4E00C94FF
S1130A80E907ACE0B0E0E7E4F5E00C94BF077C01D3
S1130A906B018A01FC0117821682838181FFBDC12B
S1130AA0CE0101964C01F7019381F60193FD8591E6
S1130AB093FF81916F01882309F4ABC1853239F426
S1130AC093FD859193FF81916F01853229F4B701DC
S1130AD090E00E942907E7CF512C312C20E02032EE
S1130AE0A0F48B3269F030F4803259F0833269F427
S1130AF020612CC08D3239F0803339F4216026C056
S1130B002260246023C0286021C027FD27C030ED67
S1130B10380F3A3078F426FF06C0FAE05F9E300DB5
S1130B201124532E13C08AE0389E300D1124332E25
S1130B3020620CC08E3221F426FD6BC1206406C0F5
S1130B408C3611F4206802C0883641F4F60193FD16
S1130B50859193FF81916F018111C1CF982F9F7D62
S1130B609554933028F40C5F1F4FFFE3F9830DC0B5
S1130B70833631F0833771F0833509F05BC022C0CE
S1130B80F801808189830E5F1F4F44244394512CC4
S1130B90540115C03801F2E06F0E711CF801A080F9
S1130BA0B18026FF03C0652D70E002C06FEF7FEFB8
S1130BB0C5012C870E941E072C0183012C852F77E9
S1130BC0222E17C03801F2E06F0E711CF801A080CC
S1130BD0B18026FF03C0652D70E002C06FEF7FEF88
S1130BE0C5012C870E9413072C012C852068222E16
S1130BF0830123FC1BC0832D90E048165906B0F4F2
S1130C00B70180E290E00E9429073A94F4CFF501FD
S1130C1027FC859127FE81915F01B70190E00E9436
S1130C20290731103A94F1E04F1A51084114510444
S1130C3071F7E5C0843611F0893639F5F80127FFDC
S1130C4007C060817181828193810C5F1F4F08C04E
S1130C5060817181072E000C880B990B0E5F1F4F6A
S1130C602F76722E97FF09C09095809570956195A7
S1130C707F4F8F4F9F4F2068722E2AE030E0A401EF
S1130C800E946107A82EA81844C0853729F42F7E36
S1130C90B22E2AE030E025C0F22FF97FBF2E8F3626
S1130CA0C1F018F4883579F0B4C0803719F088376A
S1130CB021F0AFC02F2F2061B22EB4FE0DC08B2DBA
S1130CC08460B82E09C024FF0AC09F2F9660B92EF5
S1130CD006C028E030E005C020E130E002C020E199
S1130CE032E0F801B7FE07C060817181828193818F
S1130CF00C5F1F4F06C06081718180E090E00E5F41
S1130D001F4FA4010E946107A82EA818FB2DFF778E
S1130D107F2E76FE0BC0372D3E7FA51450F474FE53
S1130D200AC072FC08C0372D3E7E05C0BA2C372D90
S1130D3003C0BA2C01C0B52C34FF0DC0FE01EA0D6E
S1130D40F11D8081803311F4397E09C032FF06C061
S1130D50B394B39404C0832F867809F0B39433FD1D
S1130D6013C030FF06C05A2CB31418F4530C5B188C
S1130D70B32CB31468F4B70180E290E03C870E947E
S1130D802907B3943C85F5CFB31410F43B1801C084
S1130D90312C34FF12C0B70180E390E03C870E94FD
S1130DA029073C8532FF17C031FD03C088E790E076
S1130DB002C088E590E0B7010CC0832F867859F013
S1130DC031FF02C08BE201C080E237FD8DE2B70142
S1130DD090E00E942907A51438F4B70180E390E05D
S1130DE00E9429075A94F7CFAA94F401EA0DF11D41
S1130DF08081B70190E00E942907A110F5CF33202C
S1130E0009F451CEB70180E290E00E9429073A9498
S1130E10F6CFF7018681978102C08FEF9FEF2C9662
S1130E20E2E10C94DB07FC01059061507040011075
S1130E30D8F7809590958E0F9F1F0895FC016150FF
S1130E40704001900110D8F7809590958E0F9F1FE8
S1130E5008950F931F93CF93DF93FB01238121FD0B
S1130E6003C08FEF9FEF28C022FF16C04681578131
S1130E70248135814217530744F4A081B1819D0137
S1130E802F5F3F4F318320838C93268137812F5FDF
S1130E903F4F3783268310C0EB01092F182F00849E
S1130EA0F185E02D0995892BE1F68E819F810196CC
S1130EB09F838E83812F902FDF91CF911F910F916C
S1130EC00895FA01AA27283051F1203181F1E894DC
S1130ED06F936E7F6E5F7F4F8F4F9F4FAF4FB1E029
S1130EE03ED0B4E03CD0670F781F891F9A1FA11D24
S1130EF0680F791F8A1F911DA11D6A0F711D811D25
S1130F00911DA11D20D009F468943F912AE0269FE9
S1130F1011243019305D3193DEF6CF010895462F48
S1130F204770405D4193B3E00FD0C9F7F6CF462F29
S1130F304F70405D4A3318F0495D31FD4052419392
S1130F4002D0A9F7EACFB4E0A6959795879577954F
S1130F506795BA95C9F700976105710508959B01D6
S1130F60AC010A2E06945795479537952795BA955F
S1130F70C9F7620F731F841F951FA01D08952F9238
S1130F803F924F925F926F927F928F929F92AF9215
S1130F90BF92CF92DF92EF92FF920F931F93CF9362
S1130FA0DF93CDB7DEB7CA1BDB0B0FB6F894DEBFF9
S1130FB00FBECDBF09942A88398848885F846E841F
S1130FC07D848C849B84AA84B984C884DF80EE8069
S1130FD0FD800C811B81AA81B981CE0FD11D0FB672
S1130FE0F894DEBF0FBECDBFED010895F894FFCF96
S1130FF0000102030405060708090A0B0C0D0E0F75
S1131000101112131415161718191A1B1C1D1E1F64
S11310102564000A004465637279707465643A203B
S10510200000CA
S9030000FC
