:100000000C9434000C943E000C943E000C943E0082
:100010000C943E000C943E000C943E000C943E0068
:100020000C943E000C943E000C943E000C943E0058
:100030000C943E000C943E000C943E000C943E0048
:100040000C943E000C943E000C943E000C943E0038
:100050000C943E000C943E000C943E000C943E0028
:100060000C943E000C943E0011241FBECFEFD8E04C
:10007000DEBFCDBF0E9440000C9457000C940000DE
:1000800080E391E00E944500FFCF9093C5008093EC
:10009000C400E1ECF0E08081886180838081806829
:1000A0008083E2ECF0E080818E6080830895F89494
:0200B000FFCF80
:00000001FF
